{
  "_format": "hh-sol-artifact-1",
  "contractName": "MyContract",
  "sourceName": "contracts/MyContract.sol",
  "abi": [
    {
      "inputs": [],
      "stateMutability": "nonpayable",
      "type": "constructor"
    },
    {
      "anonymous": false,
      "inputs": [
        {
          "indexed": true,
          "internalType": "address",
          "name": "admin",
          "type": "address"
        },
        {
          "indexed": false,
          "internalType": "string",
          "name": "action",
          "type": "string"
        }
      ],
      "name": "EmergencyAction",
      "type": "event"
    },
    {
      "anonymous": false,
      "inputs": [
        {
          "indexed": true,
          "internalType": "address",
          "name": "clearedBy",
          "type": "address"
        }
      ],
      "name": "MessageCleared",
      "type": "event"
    },
    {
      "anonymous": false,
      "inputs": [
        {
          "indexed": true,
          "internalType": "address",
          "name": "user",
          "type": "address"
        },
        {
          "indexed": false,
          "internalType": "string",
          "name": "newMessage",
          "type": "string"
        },
        {
          "indexed": false,
          "internalType": "uint256",
          "name": "timestamp",
          "type": "uint256"
        }
      ],
      "name": "MessageUpdated",
      "type": "event"
    },
    {
      "anonymous": false,
      "inputs": [
        {
          "indexed": true,
          "internalType": "address",
          "name": "previousOwner",
          "type": "address"
        },
        {
          "indexed": true,
          "internalType": "address",
          "name": "newOwner",
          "type": "address"
        }
      ],
      "name": "OwnershipTransferred",
      "type": "event"
    },
    {
      "anonymous": false,
      "inputs": [
        {
          "indexed": false,
          "internalType": "address",
          "name": "account",
          "type": "address"
        }
      ],
      "name": "Paused",
      "type": "event"
    },
    {
      "anonymous": false,
      "inputs": [
        {
          "indexed": true,
          "internalType": "address",
          "name": "user",
          "type": "address"
        },
        {
          "indexed": false,
          "internalType": "uint256",
          "name": "timestamp",
          "type": "uint256"
        }
      ],
      "name": "RateLimitHit",
      "type": "event"
    },
    {
      "anonymous": false,
      "inputs": [
        {
          "indexed": true,
          "internalType": "address",
          "name": "user",
          "type": "address"
        },
        {
          "indexed": false,
          "internalType": "string",
          "name": "reason",
          "type": "string"
        }
      ],
      "name": "SuspiciousActivity",
      "type": "event"
    },
    {
      "anonymous": false,
      "inputs": [
        {
          "indexed": false,
          "internalType": "address",
          "name": "account",
          "type": "address"
        }
      ],
      "name": "Unpaused",
      "type": "event"
    },
    {
      "stateMutability": "payable",
      "type": "fallback"
    },
    {
      "inputs": [
        {
          "internalType": "address",
          "name": "user",
          "type": "address"
        }
      ],
      "name": "blacklistUser",
      "outputs": [],
      "stateMutability": "nonpayable",
      "type": "function"
    },
    {
      "inputs": [],
      "name": "clearMessage",
      "outputs": [],
      "stateMutability": "nonpayable",
      "type": "function"
    },
    {
      "inputs": [],
      "name": "emergencyPause",
      "outputs": [],
      "stateMutability": "nonpayable",
      "type": "function"
    },
    {
      "inputs": [],
      "name": "emergencyUnpause",
      "outputs": [],
      "stateMutability": "nonpayable",
      "type": "function"
    },
    {
      "inputs": [],
      "name": "getContractStats",
      "outputs": [
        {
          "internalType": "uint256",
          "name": "total_messages",
          "type": "uint256"
        },
        {
          "internalType": "bool",
          "name": "is_paused",
          "type": "bool"
        }
      ],
      "stateMutability": "view",
      "type": "function"
    },
    {
      "inputs": [],
      "name": "getMessage",
      "outputs": [
        {
          "internalType": "string",
          "name": "",
          "type": "string"
        }
      ],
      "stateMutability": "view",
      "type": "function"
    },
    {
      "inputs": [
        {
          "internalType": "address",
          "name": "user",
          "type": "address"
        }
      ],
      "name": "getRemainingCooldown",
      "outputs": [
        {
          "internalType": "uint256",
          "name": "",
          "type": "uint256"
        }
      ],
      "stateMutability": "view",
      "type": "function"
    },
    {
      "inputs": [
        {
          "internalType": "address",
          "name": "user",
          "type": "address"
        }
      ],
      "name": "getRemainingMessages",
      "outputs": [
        {
          "internalType": "uint256",
          "name": "",
          "type": "uint256"
        }
      ],
      "stateMutability": "view",
      "type": "function"
    },
    {
      "inputs": [],
      "name": "getSecurityInfo",
      "outputs": [
        {
          "internalType": "uint256",
          "name": "maxLength",
          "type": "uint256"
        },
        {
          "internalType": "uint256",
          "name": "minLength",
          "type": "uint256"
        },
        {
          "internalType": "uint256",
          "name": "rateLimitDuration",
          "type": "uint256"
        },
        {
          "internalType": "uint256",
          "name": "maxMessagesPerMinute",
          "type": "uint256"
        },
        {
          "internalType": "uint256",
          "name": "cooldownPeriod",
          "type": "uint256"
        }
      ],
      "stateMutability": "pure",
      "type": "function"
    },
    {
      "inputs": [
        {
          "internalType": "address",
          "name": "user",
          "type": "address"
        }
      ],
      "name": "getUserStats",
      "outputs": [
        {
          "internalType": "uint256",
          "name": "messageCount",
          "type": "uint256"
        },
        {
          "internalType": "uint256",
          "name": "lastMessage",
          "type": "uint256"
        },
        {
          "internalType": "bool",
          "name": "isBlacklisted",
          "type": "bool"
        }
      ],
      "stateMutability": "view",
      "type": "function"
    },
    {
      "inputs": [
        {
          "internalType": "address",
          "name": "user",
          "type": "address"
        }
      ],
      "name": "isBlacklisted",
      "outputs": [
        {
          "internalType": "bool",
          "name": "",
          "type": "bool"
        }
      ],
      "stateMutability": "view",
      "type": "function"
    },
    {
      "inputs": [],
      "name": "owner",
      "outputs": [
        {
          "internalType": "address",
          "name": "",
          "type": "address"
        }
      ],
      "stateMutability": "view",
      "type": "function"
    },
    {
      "inputs": [],
      "name": "paused",
      "outputs": [
        {
          "internalType": "bool",
          "name": "",
          "type": "bool"
        }
      ],
      "stateMutability": "view",
      "type": "function"
    },
    {
      "inputs": [],
      "name": "renounceOwnership",
      "outputs": [],
      "stateMutability": "nonpayable",
      "type": "function"
    },
    {
      "inputs": [
        {
          "internalType": "address",
          "name": "user",
          "type": "address"
        }
      ],
      "name": "resetUser",
      "outputs": [],
      "stateMutability": "nonpayable",
      "type": "function"
    },
    {
      "inputs": [
        {
          "internalType": "string",
          "name": "newMessage",
          "type": "string"
        }
      ],
      "name": "setMessage",
      "outputs": [],
      "stateMutability": "nonpayable",
      "type": "function"
    },
    {
      "inputs": [
        {
          "internalType": "address",
          "name": "newOwner",
          "type": "address"
        }
      ],
      "name": "transferOwnership",
      "outputs": [],
      "stateMutability": "nonpayable",
      "type": "function"
    },
    {
      "inputs": [
        {
          "internalType": "address",
          "name": "user",
          "type": "address"
        }
      ],
      "name": "unblacklistUser",
      "outputs": [],
      "stateMutability": "nonpayable",
      "type": "function"
    },
    {
      "stateMutability": "payable",
      "type": "receive"
    }
  ],
  "bytecode": "0x60806040523480156200001157600080fd5b5060016000819055506200003a6200002e6200006360201b60201c565b6200006b60201b60201c565b6000600160146101000a81548160ff021916908315150217905550600060068190555062000131565b600033905090565b6000600160009054906101000a900473ffffffffffffffffffffffffffffffffffffffff16905081600160006101000a81548173ffffffffffffffffffffffffffffffffffffffff021916908373ffffffffffffffffffffffffffffffffffffffff1602179055508173ffffffffffffffffffffffffffffffffffffffff168173ffffffffffffffffffffffffffffffffffffffff167f8be0079c531659141344cd1fd0a4f28419497f9722a3daafe3b4186f6b6457e060405160405180910390a35050565b612e6a80620001416000396000f3fe60806040526004361061010d5760003560e01c80638aa96fac11610095578063dfe6b5d611610064578063dfe6b5d61461038b578063e6f3e004146103b7578063f2fde38b146103f4578063fcbca4561461041d578063fe575a87146104465761014d565b80638aa96fac146102f55780638da5cb5b1461031e578063ac4664df14610349578063ce6d41de146103605761014d565b80634e43603a116100dc5780634e43603a1461022e57806351858e271461026d5780635c975abb14610284578063715018a6146102af5780638711a719146102c65761014d565b806311980dad14610188578063343959b4146101c5578063368b8772146101ee5780634a4e3bd5146102175761014d565b3661014d576040517f08c379a000000000000000000000000000000000000000000000000000000000815260040161014490611aaf565b60405180910390fd5b6040517f08c379a000000000000000000000000000000000000000000000000000000000815260040161017f90611b1b565b60405180910390fd5b34801561019457600080fd5b506101af60048036038101906101aa9190611ba3565b610483565b6040516101bc9190611be9565b60405180910390f35b3480156101d157600080fd5b506101ec60048036038101906101e79190611ba3565b610534565b005b3480156101fa57600080fd5b5061021560048036038101906102109190611c69565b61066d565b005b34801561022357600080fd5b5061022c610b85565b005b34801561023a57600080fd5b5061025560048036038101906102509190611ba3565b610be3565b60405161026493929190611cd1565b60405180910390f35b34801561027957600080fd5b50610282610cca565b005b34801561029057600080fd5b50610299610d28565b6040516102a69190611d08565b60405180910390f35b3480156102bb57600080fd5b506102c4610d3f565b005b3480156102d257600080fd5b506102db610d53565b6040516102ec959493929190611d23565b60405180910390f35b34801561030157600080fd5b5061031c60048036038101906103179190611ba3565b610d77565b005b34801561032a57600080fd5b50610333610e95565b6040516103409190611d85565b60405180910390f35b34801561035557600080fd5b5061035e610ebf565b005b34801561036c57600080fd5b50610375610f2b565b6040516103829190611e1f565b60405180910390f35b34801561039757600080fd5b506103a0610fbd565b6040516103ae929190611e41565b60405180910390f35b3480156103c357600080fd5b506103de60048036038101906103d99190611ba3565b610fdb565b6040516103eb9190611be9565b60405180910390f35b34801561040057600080fd5b5061041b60048036038101906104169190611ba3565b611097565b005b34801561042957600080fd5b50610444600480360381019061043f9190611ba3565b61111a565b005b34801561045257600080fd5b5061046d60048036038101906104689190611ba3565b611278565b60405161047a9190611d08565b60405180910390f35b6000603c600360008473ffffffffffffffffffffffffffffffffffffffff1673ffffffffffffffffffffffffffffffffffffffff168152602001908152602001600020546104d19190611e99565b42106104e0576005905061052f565b600460008373ffffffffffffffffffffffffffffffffffffffff1673ffffffffffffffffffffffffffffffffffffffff16815260200190815260200160002054600561052c9190611ecd565b90505b919050565b61053c6112ce565b6000600360008373ffffffffffffffffffffffffffffffffffffffff1673ffffffffffffffffffffffffffffffffffffffff168152602001908152602001600020819055506000600460008373ffffffffffffffffffffffffffffffffffffffff1673ffffffffffffffffffffffffffffffffffffffff168152602001908152602001600020819055506000600560008373ffffffffffffffffffffffffffffffffffffffff1673ffffffffffffffffffffffffffffffffffffffff16815260200190815260200160002060006101000a81548160ff0219169083151502179055503373ffffffffffffffffffffffffffffffffffffffff167fadd39274de8dd8b809f76ff95f1489f4d93c1ae807bcb035ab8cee8d68a1af1b60405161066290611f4d565b60405180910390a250565b61067561134c565b61067d61139b565b818160018282905010156106c6576040517f08c379a00000000000000000000000000000000000000000000000000000000081526004016106bd90611fb9565b60405180910390fd5b6101f482829050111561070e576040517f08c379a000000000000000000000000000000000000000000000000000000000815260040161070590612025565b60405180910390fd5b61071882826113e5565b15610758576040517f08c379a000000000000000000000000000000000000000000000000000000000815260040161074f90612091565b60405180910390fd5b600560003373ffffffffffffffffffffffffffffffffffffffff1673ffffffffffffffffffffffffffffffffffffffff16815260200190815260200160002060009054906101000a900460ff16156107e5576040517f08c379a00000000000000000000000000000000000000000000000000000000081526004016107dc906120fd565b60405180910390fd5b600a600360003373ffffffffffffffffffffffffffffffffffffffff1673ffffffffffffffffffffffffffffffffffffffff168152602001908152602001600020546108319190611e99565b421015610873576040517f08c379a000000000000000000000000000000000000000000000000000000000815260040161086a90612169565b60405180910390fd5b603c600360003373ffffffffffffffffffffffffffffffffffffffff1673ffffffffffffffffffffffffffffffffffffffff168152602001908152602001600020546108bf9190611e99565b421061090b576000600460003373ffffffffffffffffffffffffffffffffffffffff1673ffffffffffffffffffffffffffffffffffffffff168152602001908152602001600020819055505b6005600460003373ffffffffffffffffffffffffffffffffffffffff1673ffffffffffffffffffffffffffffffffffffffff168152602001908152602001600020541061098d576040517f08c379a0000000000000000000000000000000000000000000000000000000008152600401610984906121d5565b60405180910390fd5b600560003373ffffffffffffffffffffffffffffffffffffffff1673ffffffffffffffffffffffffffffffffffffffff16815260200190815260200160002060009054906101000a900460ff1615610a1a576040517f08c379a0000000000000000000000000000000000000000000000000000000008152600401610a11906120fd565b60405180910390fd5b610a393373ffffffffffffffffffffffffffffffffffffffff166114b0565b15610a79576040517f08c379a0000000000000000000000000000000000000000000000000000000008152600401610a7090612241565b60405180910390fd5b3273ffffffffffffffffffffffffffffffffffffffff163373ffffffffffffffffffffffffffffffffffffffff1614610ae7576040517f08c379a0000000000000000000000000000000000000000000000000000000008152600401610ade906122ad565b60405180910390fd5b610af23385856114d3565b610afb33611691565b838360029182610b0c929190612513565b5060066000815480929190610b20906125e3565b91905055503373ffffffffffffffffffffffffffffffffffffffff167f7d81be14d10d5babaca18110e262123bff1592029a3ff54c46fedfcad9c48c05858542604051610b6f93929190612667565b60405180910390a25050610b8161186c565b5050565b610b8d6112ce565b610b95611876565b3373ffffffffffffffffffffffffffffffffffffffff167fadd39274de8dd8b809f76ff95f1489f4d93c1ae807bcb035ab8cee8d68a1af1b604051610bd9906126e5565b60405180910390a2565b6000806000610bf06112ce565b600460008573ffffffffffffffffffffffffffffffffffffffff1673ffffffffffffffffffffffffffffffffffffffff16815260200190815260200160002054600360008673ffffffffffffffffffffffffffffffffffffffff1673ffffffffffffffffffffffffffffffffffffffff16815260200190815260200160002054600560008773ffffffffffffffffffffffffffffffffffffffff1673ffffffffffffffffffffffffffffffffffffffff16815260200190815260200160002060009054906101000a900460ff169250925092509193909250565b610cd26112ce565b610cda6118d9565b3373ffffffffffffffffffffffffffffffffffffffff167fadd39274de8dd8b809f76ff95f1489f4d93c1ae807bcb035ab8cee8d68a1af1b604051610d1e90612751565b60405180910390a2565b6000600160149054906101000a900460ff16905090565b610d476112ce565b610d51600061193b565b565b60008060008060006101f46001603c6005600a945094509450945094509091929394565b610d7f6112ce565b600073ffffffffffffffffffffffffffffffffffffffff168173ffffffffffffffffffffffffffffffffffffffff1603610dee576040517f08c379a0000000000000000000000000000000000000000000000000000000008152600401610de5906127bd565b60405180910390fd5b6000600560008373ffffffffffffffffffffffffffffffffffffffff1673ffffffffffffffffffffffffffffffffffffffff16815260200190815260200160002060006101000a81548160ff0219169083151502179055503373ffffffffffffffffffffffffffffffffffffffff167fadd39274de8dd8b809f76ff95f1489f4d93c1ae807bcb035ab8cee8d68a1af1b604051610e8a90612829565b60405180910390a250565b6000600160009054906101000a900473ffffffffffffffffffffffffffffffffffffffff16905090565b610ec76112ce565b6040518060200160405280600081525060029081610ee59190612849565b503373ffffffffffffffffffffffffffffffffffffffff167fc315593cb2eabcadffae3cf94ec658d92411b500d249c1fa02715fa17146296e60405160405180910390a2565b606060028054610f3a90612336565b80601f0160208091040260200160405190810160405280929190818152602001828054610f6690612336565b8015610fb35780601f10610f8857610100808354040283529160200191610fb3565b820191906000526020600020905b815481529060010190602001808311610f9657829003601f168201915b5050505050905090565b600080610fc86112ce565b600654610fd3610d28565b915091509091565b6000600a600360008473ffffffffffffffffffffffffffffffffffffffff1673ffffffffffffffffffffffffffffffffffffffff168152602001908152602001600020546110299190611e99565b42106110385760009050611092565b42600a600360008573ffffffffffffffffffffffffffffffffffffffff1673ffffffffffffffffffffffffffffffffffffffff168152602001908152602001600020546110859190611e99565b61108f9190611ecd565b90505b919050565b61109f6112ce565b600073ffffffffffffffffffffffffffffffffffffffff168173ffffffffffffffffffffffffffffffffffffffff160361110e576040517f08c379a00000000000000000000000000000000000000000000000000000000081526004016111059061298d565b60405180910390fd5b6111178161193b565b50565b6111226112ce565b600073ffffffffffffffffffffffffffffffffffffffff168173ffffffffffffffffffffffffffffffffffffffff16141580156111925750611162610e95565b73ffffffffffffffffffffffffffffffffffffffff168173ffffffffffffffffffffffffffffffffffffffff1614155b6111d1576040517f08c379a00000000000000000000000000000000000000000000000000000000081526004016111c8906129f9565b60405180910390fd5b6001600560008373ffffffffffffffffffffffffffffffffffffffff1673ffffffffffffffffffffffffffffffffffffffff16815260200190815260200160002060006101000a81548160ff0219169083151502179055503373ffffffffffffffffffffffffffffffffffffffff167fadd39274de8dd8b809f76ff95f1489f4d93c1ae807bcb035ab8cee8d68a1af1b60405161126d90612a65565b60405180910390a250565b6000600560008373ffffffffffffffffffffffffffffffffffffffff1673ffffffffffffffffffffffffffffffffffffffff16815260200190815260200160002060009054906101000a900460ff169050919050565b6112d6611a01565b73ffffffffffffffffffffffffffffffffffffffff166112f4610e95565b73ffffffffffffffffffffffffffffffffffffffff161461134a576040517f08c379a000000000000000000000000000000000000000000000000000000000815260040161134190612ad1565b60405180910390fd5b565b600260005403611391576040517f08c379a000000000000000000000000000000000000000000000000000000000815260040161138890612b3d565b60405180910390fd5b6002600081905550565b6113a3610d28565b156113e3576040517f08c379a00000000000000000000000000000000000000000000000000000000081526004016113da90612ba9565b60405180910390fd5b565b60008083838080601f016020809104026020016040519081016040528093929190818152602001838380828437600081840152601f19601f82011690508083019250505050505050905060005b81518110156114a357600060f81b82828151811061145357611452612bc9565b5b602001015160f81c60f81b7effffffffffffffffffffffffffffffffffffffffffffffffffffffffffffff191603611490576001925050506114aa565b808061149b906125e3565b915050611432565b5060009150505b92915050565b6000808273ffffffffffffffffffffffffffffffffffffffff163b119050919050565b81816040516114e3929190612c28565b604051809103902060026040516114fa9190612cd9565b604051809103902003611554578273ffffffffffffffffffffffffffffffffffffffff167f40922f8c881e62d6da07ec2839381f754d79179a6411959f2492e225db4b2ca560405161154b90612d3c565b60405180910390a25b6005600460008573ffffffffffffffffffffffffffffffffffffffff1673ffffffffffffffffffffffffffffffffffffffff16815260200190815260200160002054106115e8578273ffffffffffffffffffffffffffffffffffffffff167f40922f8c881e62d6da07ec2839381f754d79179a6411959f2492e225db4b2ca56040516115df906121d5565b60405180910390a25b60058282905010801561163a57506002600460008573ffffffffffffffffffffffffffffffffffffffff1673ffffffffffffffffffffffffffffffffffffffff16815260200190815260200160002054115b1561168c578273ffffffffffffffffffffffffffffffffffffffff167f40922f8c881e62d6da07ec2839381f754d79179a6411959f2492e225db4b2ca560405161168390612da8565b60405180910390a25b505050565b603c600360008373ffffffffffffffffffffffffffffffffffffffff1673ffffffffffffffffffffffffffffffffffffffff168152602001908152602001600020546116dd9190611e99565b421061172d576001600460008373ffffffffffffffffffffffffffffffffffffffff1673ffffffffffffffffffffffffffffffffffffffff16815260200190815260200160002081905550611783565b600460008273ffffffffffffffffffffffffffffffffffffffff1673ffffffffffffffffffffffffffffffffffffffff168152602001908152602001600020600081548092919061177d906125e3565b91905055505b42600360008373ffffffffffffffffffffffffffffffffffffffff1673ffffffffffffffffffffffffffffffffffffffff16815260200190815260200160002081905550600160056117d59190611ecd565b600460008373ffffffffffffffffffffffffffffffffffffffff1673ffffffffffffffffffffffffffffffffffffffff1681526020019081526020016000205410611869578073ffffffffffffffffffffffffffffffffffffffff167fd4669018ec120023a55a64c4eb585368d50758f9e4a417e0d4b1ce900fb38a14426040516118609190611be9565b60405180910390a25b50565b6001600081905550565b61187e611a09565b6000600160146101000a81548160ff0219169083151502179055507f5db9ee0a495bf2e6ff9c91a7834c1ba4fdd244a5e8aa4e537bd38aeae4b073aa6118c2611a01565b6040516118cf9190611d85565b60405180910390a1565b6118e161139b565b60018060146101000a81548160ff0219169083151502179055507f62e78cea01bee320cd4e420270b5ea74000d11b0c9f74754ebdbfc544b05a258611924611a01565b6040516119319190611d85565b60405180910390a1565b6000600160009054906101000a900473ffffffffffffffffffffffffffffffffffffffff16905081600160006101000a81548173ffffffffffffffffffffffffffffffffffffffff021916908373ffffffffffffffffffffffffffffffffffffffff1602179055508173ffffffffffffffffffffffffffffffffffffffff168173ffffffffffffffffffffffffffffffffffffffff167f8be0079c531659141344cd1fd0a4f28419497f9722a3daafe3b4186f6b6457e060405160405180910390a35050565b600033905090565b611a11610d28565b611a50576040517f08c379a0000000000000000000000000000000000000000000000000000000008152600401611a4790612e14565b60405180910390fd5b565b600082825260208201905092915050565b7f4e6f2045544820616c6c6f776564000000000000000000000000000000000000600082015250565b6000611a99600e83611a52565b9150611aa482611a63565b602082019050919050565b60006020820190508181036000830152611ac881611a8c565b9050919050565b7f496e76616c69642066756e6374696f6e00000000000000000000000000000000600082015250565b6000611b05601083611a52565b9150611b1082611acf565b602082019050919050565b60006020820190508181036000830152611b3481611af8565b9050919050565b600080fd5b600080fd5b600073ffffffffffffffffffffffffffffffffffffffff82169050919050565b6000611b7082611b45565b9050919050565b611b8081611b65565b8114611b8b57600080fd5b50565b600081359050611b9d81611b77565b92915050565b600060208284031215611bb957611bb8611b3b565b5b6000611bc784828501611b8e565b91505092915050565b6000819050919050565b611be381611bd0565b82525050565b6000602082019050611bfe6000830184611bda565b92915050565b600080fd5b600080fd5b600080fd5b60008083601f840112611c2957611c28611c04565b5b8235905067ffffffffffffffff811115611c4657611c45611c09565b5b602083019150836001820283011115611c6257611c61611c0e565b5b9250929050565b60008060208385031215611c8057611c7f611b3b565b5b600083013567ffffffffffffffff811115611c9e57611c9d611b40565b5b611caa85828601611c13565b92509250509250929050565b60008115159050919050565b611ccb81611cb6565b82525050565b6000606082019050611ce66000830186611bda565b611cf36020830185611bda565b611d006040830184611cc2565b949350505050565b6000602082019050611d1d6000830184611cc2565b92915050565b600060a082019050611d386000830188611bda565b611d456020830187611bda565b611d526040830186611bda565b611d5f6060830185611bda565b611d6c6080830184611bda565b9695505050505050565b611d7f81611b65565b82525050565b6000602082019050611d9a6000830184611d76565b92915050565b600081519050919050565b60005b83811015611dc9578082015181840152602081019050611dae565b60008484015250505050565b6000601f19601f8301169050919050565b6000611df182611da0565b611dfb8185611a52565b9350611e0b818560208601611dab565b611e1481611dd5565b840191505092915050565b60006020820190508181036000830152611e398184611de6565b905092915050565b6000604082019050611e566000830185611bda565b611e636020830184611cc2565b9392505050565b7f4e487b7100000000000000000000000000000000000000000000000000000000600052601160045260246000fd5b6000611ea482611bd0565b9150611eaf83611bd0565b9250828201905080821115611ec757611ec6611e6a565b5b92915050565b6000611ed882611bd0565b9150611ee383611bd0565b9250828203905081811115611efb57611efa611e6a565b5b92915050565b7f5573657220726573657400000000000000000000000000000000000000000000600082015250565b6000611f37600a83611a52565b9150611f4282611f01565b602082019050919050565b60006020820190508181036000830152611f6681611f2a565b9050919050565b7f4d65737361676520746f6f2073686f7274000000000000000000000000000000600082015250565b6000611fa3601183611a52565b9150611fae82611f6d565b602082019050919050565b60006020820190508181036000830152611fd281611f96565b9050919050565b7f4d65737361676520746f6f206c6f6e6700000000000000000000000000000000600082015250565b600061200f601083611a52565b915061201a82611fd9565b602082019050919050565b6000602082019050818103600083015261203e81612002565b9050919050565b7f4e756c6c206279746573206e6f7420616c6c6f77656400000000000000000000600082015250565b600061207b601683611a52565b915061208682612045565b602082019050919050565b600060208201905081810360008301526120aa8161206e565b9050919050565b7f426c61636b6c6973746564207573657200000000000000000000000000000000600082015250565b60006120e7601083611a52565b91506120f2826120b1565b602082019050919050565b60006020820190508181036000830152612116816120da565b9050919050565b7f436f6f6c646f776e206163746976650000000000000000000000000000000000600082015250565b6000612153600f83611a52565b915061215e8261211d565b602082019050919050565b6000602082019050818103600083015261218281612146565b9050919050565b7f52617465206c696d697420657863656564656400000000000000000000000000600082015250565b60006121bf601383611a52565b91506121ca82612189565b602082019050919050565b600060208201905081810360008301526121ee816121b2565b9050919050565b7f4e6f20636f6e7472616374730000000000000000000000000000000000000000600082015250565b600061222b600c83611a52565b9150612236826121f5565b602082019050919050565b6000602082019050818103600083015261225a8161221e565b9050919050565b7f50726f78792063616c6c73206e6f7420616c6c6f776564000000000000000000600082015250565b6000612297601783611a52565b91506122a282612261565b602082019050919050565b600060208201905081810360008301526122c68161228a565b9050919050565b600082905092915050565b7f4e487b7100000000000000000000000000000000000000000000000000000000600052604160045260246000fd5b7f4e487b7100000000000000000000000000000000000000000000000000000000600052602260045260246000fd5b6000600282049050600182168061234e57607f821691505b60208210810361236157612360612307565b5b50919050565b60008190508160005260206000209050919050565b60006020601f8301049050919050565b600082821b905092915050565b6000600883026123c97fffffffffffffffffffffffffffffffffffffffffffffffffffffffffffffffff8261238c565b6123d3868361238c565b95508019841693508086168417925050509392505050565b6000819050919050565b600061241061240b61240684611bd0565b6123eb565b611bd0565b9050919050565b6000819050919050565b61242a836123f5565b61243e61243682612417565b848454612399565b825550505050565b600090565b612453612446565b61245e818484612421565b505050565b5b818110156124825761247760008261244b565b600181019050612464565b5050565b601f8211156124c75761249881612367565b6124a18461237c565b810160208510156124b0578190505b6124c46124bc8561237c565b830182612463565b50505b505050565b600082821c905092915050565b60006124ea600019846008026124cc565b1980831691505092915050565b600061250383836124d9565b9150826002028217905092915050565b61251d83836122cd565b67ffffffffffffffff811115612536576125356122d8565b5b6125408254612336565b61254b828285612486565b6000601f83116001811461257a5760008415612568578287013590505b61257285826124f7565b8655506125da565b601f19841661258886612367565b60005b828110156125b05784890135825560018201915060208501945060208101905061258b565b868310156125cd57848901356125c9601f8916826124d9565b8355505b6001600288020188555050505b50505050505050565b60006125ee82611bd0565b91507fffffffffffffffffffffffffffffffffffffffffffffffffffffffffffffffff82036126205761261f611e6a565b5b600182019050919050565b82818337600083830152505050565b60006126468385611a52565b935061265383858461262b565b61265c83611dd5565b840190509392505050565b6000604082019050818103600083015261268281858761263a565b90506126916020830184611bda565b949350505050565b7f556e706175736564000000000000000000000000000000000000000000000000600082015250565b60006126cf600883611a52565b91506126da82612699565b602082019050919050565b600060208201905081810360008301526126fe816126c2565b9050919050565b7f5061757365640000000000000000000000000000000000000000000000000000600082015250565b600061273b600683611a52565b915061274682612705565b602082019050919050565b6000602082019050818103600083015261276a8161272e565b9050919050565b7f496e76616c696420616464726573730000000000000000000000000000000000600082015250565b60006127a7600f83611a52565b91506127b282612771565b602082019050919050565b600060208201905081810360008301526127d68161279a565b9050919050565b7f5573657220756e626c61636b6c69737465640000000000000000000000000000600082015250565b6000612813601283611a52565b915061281e826127dd565b602082019050919050565b6000602082019050818103600083015261284281612806565b9050919050565b61285282611da0565b67ffffffffffffffff81111561286b5761286a6122d8565b5b6128758254612336565b612880828285612486565b600060209050601f8311600181146128b357600084156128a1578287015190505b6128ab85826124f7565b865550612913565b601f1984166128c186612367565b60005b828110156128e9578489015182556001820191506020850194506020810190506128c4565b868310156129065784890151612902601f8916826124d9565b8355505b6001600288020188555050505b505050505050565b7f4f776e61626c653a206e6577206f776e657220697320746865207a65726f206160008201527f6464726573730000000000000000000000000000000000000000000000000000602082015250565b6000612977602683611a52565b91506129828261291b565b604082019050919050565b600060208201905081810360008301526129a68161296a565b9050919050565b7f496e76616c6964206f72206f776e657200000000000000000000000000000000600082015250565b60006129e3601083611a52565b91506129ee826129ad565b602082019050919050565b60006020820190508181036000830152612a12816129d6565b9050919050565b7f5573657220626c61636b6c697374656400000000000000000000000000000000600082015250565b6000612a4f601083611a52565b9150612a5a82612a19565b602082019050919050565b60006020820190508181036000830152612a7e81612a42565b9050919050565b7f4f776e61626c653a2063616c6c6572206973206e6f7420746865206f776e6572600082015250565b6000612abb602083611a52565b9150612ac682612a85565b602082019050919050565b60006020820190508181036000830152612aea81612aae565b9050919050565b7f5265656e7472616e637947756172643a207265656e7472616e742063616c6c00600082015250565b6000612b27601f83611a52565b9150612b3282612af1565b602082019050919050565b60006020820190508181036000830152612b5681612b1a565b9050919050565b7f5061757361626c653a2070617573656400000000000000000000000000000000600082015250565b6000612b93601083611a52565b9150612b9e82612b5d565b602082019050919050565b60006020820190508181036000830152612bc281612b86565b9050919050565b7f4e487b7100000000000000000000000000000000000000000000000000000000600052603260045260246000fd5b600081905092915050565b6000612c0f8385612bf8565b9350612c1c83858461262b565b82840190509392505050565b6000612c35828486612c03565b91508190509392505050565b60008190508160005260206000209050919050565b60008154612c6381612336565b612c6d8186612bf8565b94506001821660008114612c885760018114612c9d57612cd0565b60ff1983168652811515820286019350612cd0565b612ca685612c41565b60005b83811015612cc857815481890152600182019150602081019050612ca9565b838801955050505b50505092915050565b6000612ce58284612c56565b915081905092915050565b7f5265706561746564206964656e746963616c206d657373616765000000000000600082015250565b6000612d26601a83611a52565b9150612d3182612cf0565b602082019050919050565b60006020820190508181036000830152612d5581612d19565b9050919050565b7f506f74656e7469616c207370616d000000000000000000000000000000000000600082015250565b6000612d92600e83611a52565b9150612d9d82612d5c565b602082019050919050565b60006020820190508181036000830152612dc181612d85565b9050919050565b7f5061757361626c653a206e6f7420706175736564000000000000000000000000600082015250565b6000612dfe601483611a52565b9150612e0982612dc8565b602082019050919050565b60006020820190508181036000830152612e2d81612df1565b905091905056fea2646970667358221220a263ba1957eab2b817e8e67ecfb5a944b292e41ee3f8f63747cf982f6512b83a64736f6c63430008140033",
  "linkReferences": {},
  "deployedLinkReferences": {}
}